{
  "_format": "hh-sol-artifact-1",
  "contractName": "Partnership",
  "sourceName": "contracts/Partnership.sol",
  "abi": [
    {
      "inputs": [
        {
          "internalType": "address payable[]",
          "name": "_addresses",
          "type": "address[]"
        },
        {
          "internalType": "uint256[]",
          "name": "_splitRatio",
          "type": "uint256[]"
        }
      ],
      "stateMutability": "nonpayable",
      "type": "constructor"
    },
    {
      "inputs": [
        {
          "internalType": "uint256",
          "name": "",
          "type": "uint256"
        }
      ],
      "name": "addresses",
      "outputs": [
        {
          "internalType": "address payable",
          "name": "",
          "type": "address"
        }
      ],
      "stateMutability": "view",
      "type": "function"
    },
    {
      "inputs": [],
      "name": "getAddressesLength",
      "outputs": [
        {
          "internalType": "uint256",
          "name": "",
          "type": "uint256"
        }
      ],
      "stateMutability": "view",
      "type": "function"
    },
    {
      "inputs": [],
      "name": "getBalance",
      "outputs": [
        {
          "internalType": "uint256",
          "name": "",
          "type": "uint256"
        }
      ],
      "stateMutability": "view",
      "type": "function"
    },
    {
      "inputs": [],
      "name": "getSplitRatiosLength",
      "outputs": [
        {
          "internalType": "uint256",
          "name": "",
          "type": "uint256"
        }
      ],
      "stateMutability": "view",
      "type": "function"
    },
    {
      "inputs": [
        {
          "internalType": "uint256",
          "name": "",
          "type": "uint256"
        }
      ],
      "name": "splitRatio",
      "outputs": [
        {
          "internalType": "uint256",
          "name": "",
          "type": "uint256"
        }
      ],
      "stateMutability": "view",
      "type": "function"
    },
    {
      "inputs": [],
      "name": "withdraw",
      "outputs": [],
      "stateMutability": "nonpayable",
      "type": "function"
    },
    {
      "stateMutability": "payable",
      "type": "receive"
    }
  ],
  "bytecode": "0x60806040523480156200001157600080fd5b506040516200107c3803806200107c833981810160405281019062000037919062000494565b60018251116200007e576040517f08c379a00000000000000000000000000000000000000000000000000000000081526004016200007590620005c0565b60405180910390fd5b8051825114620000c5576040517f08c379a0000000000000000000000000000000000000000000000000000000008152600401620000bc906200057c565b60405180910390fd5b620000d6816200011660201b60201c565b6002819055508160009080519060200190620000f492919062000222565b5080600190805190602001906200010d929190620002b1565b5050506200094f565b6000806000905060005b83518110156200021857600084828151811062000166577f4e487b7100000000000000000000000000000000000000000000000000000000600052603260045260246000fd5b602002602001015111620001b1576040517f08c379a0000000000000000000000000000000000000000000000000000000008152600401620001a8906200059e565b60405180910390fd5b838181518110620001eb577f4e487b7100000000000000000000000000000000000000000000000000000000600052603260045260246000fd5b6020026020010151826200020091906200067a565b915080806200020f906200074b565b91505062000120565b5080915050919050565b8280548282559060005260206000209081019282156200029e579160200282015b828111156200029d5782518260006101000a81548173ffffffffffffffffffffffffffffffffffffffff021916908373ffffffffffffffffffffffffffffffffffffffff1602179055509160200191906001019062000243565b5b509050620002ad919062000303565b5090565b828054828255906000526020600020908101928215620002f0579160200282015b82811115620002ef578251825591602001919060010190620002d2565b5b509050620002ff919062000303565b5090565b5b808211156200031e57600081600090555060010162000304565b5090565b60006200033962000333846200060b565b620005e2565b905080838252602082019050828560208602820111156200035957600080fd5b60005b858110156200038d57816200037288826200040c565b8452602084019350602083019250506001810190506200035c565b5050509392505050565b6000620003ae620003a8846200063a565b620005e2565b90508083825260208201905082856020860282011115620003ce57600080fd5b60005b85811015620004025781620003e788826200047d565b845260208401935060208301925050600181019050620003d1565b5050509392505050565b6000815190506200041d816200091b565b92915050565b600082601f8301126200043557600080fd5b81516200044784826020860162000322565b91505092915050565b600082601f8301126200046257600080fd5b81516200047484826020860162000397565b91505092915050565b6000815190506200048e8162000935565b92915050565b60008060408385031215620004a857600080fd5b600083015167ffffffffffffffff811115620004c357600080fd5b620004d18582860162000423565b925050602083015167ffffffffffffffff811115620004ef57600080fd5b620004fd8582860162000450565b9150509250929050565b60006200051660328362000669565b9150620005238262000808565b604082019050919050565b60006200053d60228362000669565b91506200054a8262000857565b604082019050919050565b60006200056460438362000669565b91506200057182620008a6565b606082019050919050565b60006020820190508181036000830152620005978162000507565b9050919050565b60006020820190508181036000830152620005b9816200052e565b9050919050565b60006020820190508181036000830152620005db8162000555565b9050919050565b6000620005ee62000601565b9050620005fc828262000715565b919050565b6000604051905090565b600067ffffffffffffffff821115620006295762000628620007c8565b5b602082029050602081019050919050565b600067ffffffffffffffff821115620006585762000657620007c8565b5b602082029050602081019050919050565b600082825260208201905092915050565b600062000687826200070b565b915062000694836200070b565b9250827fffffffffffffffffffffffffffffffffffffffffffffffffffffffffffffffff03821115620006cc57620006cb62000799565b5b828201905092915050565b6000620006e482620006eb565b9050919050565b600073ffffffffffffffffffffffffffffffffffffffff82169050919050565b6000819050919050565b6200072082620007f7565b810181811067ffffffffffffffff82111715620007425762000741620007c8565b5b80604052505050565b600062000758826200070b565b91507fffffffffffffffffffffffffffffffffffffffffffffffffffffffffffffffff8214156200078e576200078d62000799565b5b600182019050919050565b7f4e487b7100000000000000000000000000000000000000000000000000000000600052601160045260246000fd5b7f4e487b7100000000000000000000000000000000000000000000000000000000600052604160045260246000fd5b6000601f19601f8301169050919050565b7f546865206164647265737320616d6f756e7420616e642073706c69742072617460008201527f696f2073686f756c6420626520657175616c0000000000000000000000000000602082015250565b7f53706c697420726174696f2063616e206e6f74206265206c657373207468616e60008201527f2031000000000000000000000000000000000000000000000000000000000000602082015250565b7f4d6f7265207468616e206f6e6520616464726573732073686f756c642062652060008201527f70726f766964656420746f2065737461626c697368206120706172746e65727360208201527f6869700000000000000000000000000000000000000000000000000000000000604082015250565b6200092681620006d7565b81146200093257600080fd5b50565b62000940816200070b565b81146200094c57600080fd5b50565b61071d806200095f6000396000f3fe6080604052600436106100595760003560e01c806312065fe0146100655780633ccfd60b14610090578063614a4b17146100a757806375a2cc6b146100e4578063cbf78f471461010f578063edf26d9b1461013a57610060565b3661006057005b600080fd5b34801561007157600080fd5b5061007a610177565b60405161008791906104be565b60405180910390f35b34801561009c57600080fd5b506100a561017f565b005b3480156100b357600080fd5b506100ce60048036038101906100c991906103d6565b610345565b6040516100db91906104be565b60405180910390f35b3480156100f057600080fd5b506100f9610369565b60405161010691906104be565b60405180910390f35b34801561011b57600080fd5b50610124610376565b60405161013191906104be565b60405180910390f35b34801561014657600080fd5b50610161600480360381019061015c91906103d6565b610382565b60405161016e9190610463565b60405180910390f35b600047905090565b6000808054905090506000610192610177565b9050600081116101d7576040517f08c379a00000000000000000000000000000000000000000000000000000000081526004016101ce9061049e565b60405180910390fd5b600254811161021b576040517f08c379a00000000000000000000000000000000000000000000000000000000081526004016102129061047e565b60405180910390fd5b60005b828110156103405760008181548110610260577f4e487b7100000000000000000000000000000000000000000000000000000000600052603260045260246000fd5b9060005260206000200160009054906101000a900473ffffffffffffffffffffffffffffffffffffffff1673ffffffffffffffffffffffffffffffffffffffff166108fc600183815481106102de577f4e487b7100000000000000000000000000000000000000000000000000000000600052603260045260246000fd5b9060005260206000200154600254856102f791906104ea565b610301919061051b565b9081150290604051600060405180830381858888f1935050505015801561032c573d6000803e3d6000fd5b508080610338906105b1565b91505061021e565b505050565b6001818154811061035557600080fd5b906000526020600020016000915090505481565b6000600180549050905090565b60008080549050905090565b6000818154811061039257600080fd5b906000526020600020016000915054906101000a900473ffffffffffffffffffffffffffffffffffffffff1681565b6000813590506103d0816106d0565b92915050565b6000602082840312156103e857600080fd5b60006103f6848285016103c1565b91505092915050565b61040881610575565b82525050565b600061041b6030836104d9565b915061042682610658565b604082019050919050565b600061043e6014836104d9565b9150610449826106a7565b602082019050919050565b61045d816105a7565b82525050565b600060208201905061047860008301846103ff565b92915050565b600060208201905081810360008301526104978161040e565b9050919050565b600060208201905081810360008301526104b781610431565b9050919050565b60006020820190506104d36000830184610454565b92915050565b600082825260208201905092915050565b60006104f5826105a7565b9150610500836105a7565b9250826105105761050f610629565b5b828204905092915050565b6000610526826105a7565b9150610531836105a7565b9250817fffffffffffffffffffffffffffffffffffffffffffffffffffffffffffffffff048311821515161561056a576105696105fa565b5b828202905092915050565b600061058082610587565b9050919050565b600073ffffffffffffffffffffffffffffffffffffffff82169050919050565b6000819050919050565b60006105bc826105a7565b91507fffffffffffffffffffffffffffffffffffffffffffffffffffffffffffffffff8214156105ef576105ee6105fa565b5b600182019050919050565b7f4e487b7100000000000000000000000000000000000000000000000000000000600052601160045260246000fd5b7f4e487b7100000000000000000000000000000000000000000000000000000000600052601260045260246000fd5b7f42616c616e63652073686f756c642062652067726561746572207468616e207460008201527f6f74616c2073706c697420726174696f00000000000000000000000000000000602082015250565b7f496e73756666696369656e742062616c616e6365000000000000000000000000600082015250565b6106d9816105a7565b81146106e457600080fd5b5056fea26469706673582212204d1e69f68dbb454cc698466b7ac36534555078ec4a442deb9a1d76e0e268c5d964736f6c63430008040033",
  "linkReferences": {},
  "deployedLinkReferences": {}
}